{
  "contractName": "Hello",
  "abi": [
    {
      "constant": true,
      "inputs": [],
      "name": "message",
      "outputs": [
        {
          "name": "",
          "type": "string"
        }
      ],
      "payable": false,
      "stateMutability": "view",
      "type": "function"
    },
    {
      "constant": false,
      "inputs": [],
      "name": "HelloWorld",
      "outputs": [],
      "payable": false,
      "stateMutability": "nonpayable",
      "type": "function"
    }
  ],
  "bytecode": "0x608060405234801561001057600080fd5b506102dc806100206000396000f3fe60806040526004361061004c576000357c0100000000000000000000000000000000000000000000000000000000900463ffffffff1680637fffb7bd14610051578063e21f37ce14610068575b600080fd5b34801561005d57600080fd5b506100666100f8565b005b34801561007457600080fd5b5061007d61016d565b6040518080602001828103825283818151815260200191508051906020019080838360005b838110156100bd5780820151818401526020810190506100a2565b50505050905090810190601f1680156100ea5780820380516001836020036101000a031916815260200191505b509250505060405180910390f35b606060405190810160405280602581526020017f48656c6c6f2c20576f726c642c206d7920666972737420736d61727420636f6e81526020017f74726163740000000000000000000000000000000000000000000000000000008152506000908051906020019061016a92919061020b565b50565b60008054600181600116156101000203166002900480601f0160208091040260200160405190810160405280929190818152602001828054600181600116156101000203166002900480156102035780601f106101d857610100808354040283529160200191610203565b820191906000526020600020905b8154815290600101906020018083116101e657829003601f168201915b505050505081565b828054600181600116156101000203166002900490600052602060002090601f016020900481019282601f1061024c57805160ff191683800117855561027a565b8280016001018555821561027a579182015b8281111561027957825182559160200191906001019061025e565b5b509050610287919061028b565b5090565b6102ad91905b808211156102a9576000816000905550600101610291565b5090565b9056fea165627a7a723058206b9b0d6f6493398775c3c284570c97533435934a52d3a653af696a6aa41c3cc30029",
  "source": "pragma solidity ^0.5;\n\ncontract Hello {\n    string public message;\n\n    function HelloWorld() public {\n\n        message = \"Hello, World, my first smart contract\";\n    }\n}\n",
  "sourcePath": "/Users/mattd/myProjects/eth-dev/contracts/Hello.sol",
  "compiler": {
    "name": "solc",
    "version": "0.5.0+commit.1d4f565a.Emscripten.clang"
  },
  "schemaVersion": "3.0.1",
  "updatedAt": "2019-01-20T22:52:01.844Z",
  "devdoc": {
    "methods": {}
  },
  "userdoc": {
    "methods": {}
  }
}